:040000008A15382DF8
:08000600FA1FF213003008009C
:10000E00FB14FB1F1128FF30F300F200F100F0008B
:08001E00FA0DF20CFF3008009E
:100026007B15FB1F1D280130F300F201F101F001E1
:08003600FA0DF20CFF30080086
:0E003E00F201F101F001F801F30100300800B9
:10004C00083083120313FC002330FD00FD0B2C2819
:06005C00FC0B2C2808003B
:10006200103083120313FD00FD0B35280000080039
:100072007C186F28FC1840287C198E283928A0018A
:100082007208031D60287108F2007008F1007808F8
:10009200F000F801A0157208031D60287108F20033
:1000A2007008F100F001A01120167208031D6028EB
:1000B2007108F200F101A0157208031982282008C4
:1000C200F302031D031C86280310F21B6F28F80D90
:1000D200F00DF10DF20DF30B662886287B1B701CC8
:1000E2008A28F81F8A28F00A0319F10A0319F20A6A
:1000F200031D8A28F20CF10CF00CF30A03198E2866
:100102008A280130FC001F2091280230FC001320B5
:1001120091280430FC00032091280830FC000720BD
:0401220000000800D1
:0401260000000800CD
:10012A0083120313FA017308031D7A147708031D57
:10013A00FA147A080319E128033A0319AC287A1841
:10014A00A928F61FDF28DD28F21FDD28DF2872081C
:10015A008039FA00F21376088039F6137A06031901
:10016A00BA287A080319DD28DF28770873020319E9
:10017A00C128031CD528D928760872020319C82871
:10018A00031CD528D928750871020319CF28031C26
:10019A00D528D928740870020319E1280318D92828
:1001AA00FA080319DF28DD28FA080319DD28DF28F1
:1001BA0003140800031008000314031508000800BC
:1001CA0083120313FB017308031D770803193C29E3
:1001DA0072087606FA007708F3077E30031CF928BE
:1001EA00F30203183F29FC28F302031C4229720870
:1001FA00F8007108FC007008FD00F817F6170310E4
:10020A00F201F101F0011830A0007D1C16297408D2
:10021A00F00775080318750FF10776080318760FAB
:10022A00F207F20CF10CF00CF80CFC0CFD0C0310AC
:10023A00A00B0A29F21B2629F80DF00DF10DF20D7B
:10024A00F3037B1B701C3829F81F3829F00A03199D
:10025A00F10A0319F20A031D3829F20CF10CF00C09
:10026A00F30A03193F29FA1FF21300304429013017
:10027A001F2044290230072044290430132000009B
:02028A0008006A
:10028C008312031373087706031D59297208760627
:10029C00031D592971087506031D59297008740628
:0C02AC00031903150800031108000800E6
:1002B800831203137008F8007108F0007208F10047
:1002C8007308F200F301FB01FC019E30F300FA0110
:1002D800F21F7A29F809F009F109F209F80A031955
:1002E800F00A0319F10A0319F20AFA170230FC009E
:0402F80039200800A1
:1002FC00831603134608393C031C8B293030460205
:0E030C00031C8B290130F0008C29F001080041
:10031A00831603134608203A03199E2946080D3C02
:10032A00031C9C2909304602031C9C299E29F001C2
:08033A00A0290130F0000800C9
:10034200831203137008F100F0010830FC007108F9
:10035200F40C0318B029FC0BA929F1010034031095
:10036200B529F40C0318F107F10CF00CFC0BB229BF
:02037200080081
:10037400831203132230FC00F801F901FA01FB0196
:10038400FC030319F0290310FB0CFA0CF90CF80C0C
:10039400F30CF20CF10CF00C031CC229FC0303193E
:1003A400E2297408F80775080318750FF907760829
:1003B4000318760FFA0777080318770FFB07C62987
:1003C4007408F80775080318750FF90776080318F9
:0E03D400760FFA0777080318770FFB0708006B
:1003E20083160313C61BF82983128611FA29831276
:1003F20086158316461B002A83120611022A8312CF
:1004020006158316C61A082A831286100A2A831230
:1004120086148316461A102A83120610122A831291
:1004220006146E18162A0616172A06128616932026
:1004320086128316C619202A83128611222A831253
:10044200861583164619282A831206112A2A831230
:1004520006158316C618302A83128610322A831292
:10046200861483164618382A831206103A2A8312F3
:1004720006146E183E2A06163F2A06128616932086
:0E04820086126E1C462A2620472A31200800CA
:10049000831603133E080319512A3E0884003D08C1
:1004A00080003D0884000008F0007008C10070085A
:1004B000C6008D21700803195F2ABD0A512ABF01A9
:1004C0000030C11BFF30F00000307006031D6A2AA7
:1004D0002D304106031D702A0130BF00BD0A7D2A60
:1004E0000030C11BFF30F00000307006031D7A2A77
:1004F0002B304106031D7D2ABD0AC101C201C30183
:10050000C401C501C0013F1A8E2A3D0884000008BD
:100510002E3A031D8E2A3F16BD0AE92A3D088400A3
:100520000008C6007E217008031D972AEA2ABF141E
:100530000030C11BFF30003A031DA02A08304106DD
:100540000319E52A3F1EA52AC003C10A4208F0008C
:100550004308F1004408F2004508F3000A30F400B3
:10056000F501F601F701BA2170088316C20071087F
:10057000C3007208C4007308C500000000003D08F5
:10058000840030300002F000F101031CF103003060
:10059000F11BFF30F200F3004208F0074308031894
:1005A000430FF10744080318440FF20745080318E6
:1005B000450FF3077008C2007108C3007208C40039
:1005C0007308C50000000000E82A3F1AE82AC00AA4
:1005D000BD0A832AC1013D0884000008653A031959
:1005E000F82A3D0884000008453A0319F82A512BDF
:1005F000BD0A3D08840000082D3A031D022BBF15DB
:10060000BD0A092B3D08840000082B3A031D092B65
:10061000BD0A3D0884000008303A031D112BBD0AB5
:10062000092B3D0884000008C6007E2170080319CC
:100630004C2B3D08840030300002C100BD0A3D084B
:1006400084000008C6007E21700803194C2B410865
:10065000F0000A30F400A12183163D0884003030F8
:100660000002F10071087007C100BD0A3D08840056
:100670000008C6007E21700803194C2B4108F000C9
:100680000A30F400A12183163D08840030300002B6
:10069000F10071087007C100BF1D512B4108003CDB
:1006A000C1004108C0073E08003A03195D2BBF1C7A
:1006B0005D2B3E0884003D0880004208F00043089E
:1006C000F1004408F2004508F3005C21700883162D
:1006D000C2007108C3007208C4007308C500F401A9
:1006E000F501F601F7014208F0004308F100440863
:1006F000F2004508F30046210130031D0030F000F0
:1007000070080319882BF001F101F201F301962C16
:10071000803083164006F0008030003A70020318E3
:10072000072C4008003CC00080304006F0008030BC
:100730000A3A7002031CB92B4208F0004308F1008A
:100740004408F2004508F300FF30F400E630F500FD
:100750005B30F6005D30F700E52070088316C200BC
:100760007108C3007208C4007308C5000A30C002D3
:10077000942B4008003A0319D92B4208F000430893
:10078000F1004408F2004508F300CD30F400CC300D
:10079000F5004C30F6007B30F700E520700883163A
:1007A000C2007108C3007208C4007308C500C0030A
:1007B000B92B0130F4000030F5000030F6000130B4
:1007C000F7004208F0004308F1004408F200450831
:1007D000F3009520013003180030F0007008031971
:1007E000062C83163F1CFD2B0130F0000030F10079
:1007F0008030F2000330F300962C0130F00000301E
:10080000F1000030F2000130F300962C7E2C8316AC
:100810008030003AF00080304006700203187E2CD1
:100820000A304002031C312C4208F0004308F1005A
:100830004408F2004508F300F930F4000230F500F6
:100840001530F600A030F700E52070088316C200CE
:100850007108C3007208C4007308C5000A30C002E2
:10086000102C4008003A0319512C4208F0004308AC
:10087000F1004408F2004508F3000030F4000030B5
:10088000F5002030F6008230F700E520700883166E
:10089000C2007108C3007208C4007308C500C00319
:1008A000312C4208F4004308F5004408F6004508DE
:1008B000F700FF30F000FF30F1007F30F200FF3032
:1008C000F3009520013003180030F0007008031980
:1008D0007E2C83163F1C752CFF30F000FF30F1009A
:1008E000FF30F200FF30F300962CFF30F000FF30B5
:1008F000F1007F30F200FF30F300962C83163F1C8E
:100900008E2C00304206F00000304306F1008030AB
:100910004406F20000304506F300962C4208F00031
:0E0920004308F1004408F2004508F300080007
:10092E00A0017208031DAC2C7108F2007008F100D2
:10093E00F001A0157208031DAC2C7108F200F10134
:10094E00A011201672080319BA2C2008F302031DF9
:10095E00031CBE2C0310F21BC22CF00DF10DF20D78
:10096E00F30BB22CBE2C0130FC001F20C52C023024
:0E097E00FC001320C52C0430FC0003200800F0
:10098C00831203136E1083163D08C600F1216E14FA
:02099C00080051
:10099E007B14FB1FDA2CF201FA1FFF30F200F1007C
:0A09AE00F000FA0DF20CFF30080013
:0E09B800831603133908BD00BE014822080053
:1009C6008312031372087606A000F801F901730872
:1009D6007702031C062D7708FD007308F7007D08D3
:1009E600F3007608FD007208F6007D08F20075082F
:1009F600FD007108F5007D08F1007408FD0070081F
:100A0600F4007D08F000770803197F2D7208FA00BC
:100A1600F217F61777087302F7000319392D083015
:100A26007702031C2F2DF7007408F9007508F400EF
:100A36007608F500F60108307702031C2F2DF70023
:100A46007408F9007508F400F50108307702031CF4
:100A56002F2D7A08F2007F2D77080319392D031000
:100A6600F60CF50CF40CF90CF70B322DA01F462DE5
:100A7600F909F409F509F609F90A0319F40A03193B
:100A8600F50A0319F60A7908F80774080318740FAB
:100A9600F00775080318750FF10776080318760F27
:100AA600F207A01B5F2D031C6F2DF20CF10CF00C4E
:100AB600F80CF30F6F2D7B2D0318732DF809F00931
:100AC600F109F209F80A0319F00A0319F10A0319E0
:100AD600F20A8030FA06772D0130FC003920812D8C
:100AE6000230FC003920812D0430FC009724812D32
:100AF6000830FC000720812D0030FC0000000800B3
:060B0600FB15FF300800A2
:100B0C0083120313F8010830FC00700DF80D740803
:100B1C00F8020318932DF8070310F00DFC0B8B2D26
:020B2C000800BF
:100B2E00A53083120313FD00FD0B9B2D000000006A
:020B3E000800AD
:100B4000193083120313FD00FD0BA42D00000000DB
:020B500008009B
:0E0B5200073083120313FD00FD0BAD2D0800CC
:0E0B6000831203136D088A006C0882000800DF
:100B6E0083120313F801F9011030FC00710DF80D1A
:100B7E00F90D7408F8027508031C750FF9020318B5
:100B8E00CF2D7408F80775080318750FF9070310B1
:0A0B9E00F00DF10DFC0BBD2D080059
:100BA800831603139818DA2D0000D42D3908831200
:040BB8009900080098
:100BBC0083120313FB01FC01FA01730803190B2EBA
:100BCC00FA13F2178630F302F31BEF2D0319EF2DF6
:100BDC000D2EF309F30A08307302031CFC2DF300ED
:100BEC00F20DF2017308031D0310032E7308031991
:100BFC00032E0310F20CF30BFF2D7B1B721C0B2E20
:100C0C00031C0B2EF20A0319122EF101152E7B1464
:100C1C00FB1F182EF101182E0130FC001A2E00308B
:100C2C00FC001A2EFF30FC00FC0803191E2ECF24EA
:060C3C007208F000080040
:100C4200332E803083160313B900462EC030B9000C
:100C5200462E9430B900462ED430B900462E80304C
:100C6200B900462E831603133908013A0319222EBE
:100C72003908023A0319272E3908033A03192A2E92
:100C82003908043A03192D2E302E3A03F0003908A0
:100C9200F0077008B9007008C600F1216E108316C3
:100CA200BC013C083B07840000080319612E3C0884
:100CB2003B0784000008BD00C6248316BC0A522EDE
:060CC20083126E1408000D
:100CC800831603133908F2007208F100F20A3A0891
:100CD800F000BA0A700884000008F0007108840067
:100CE8007008800071088400000803197C2E682EA3
:060CF8003908F0000800BD
:100CFE0083120313FD01F801700803190034740602
:100D0E00FA00FA1BFD09FB01F41F8F2EF409F40AF9
:100D1E00F01F932EF009F00A70087404FA00FA1B03
:100D2E00B72E7408F802F00D700DF80D7408F80760
:100D3E00F00D0630FC00700DF80D74087018F802F6
:100D4E00701CF807F00DFC0BA22E701CF8077B1818
:100D5E00C52EFD1F0034F009F00AF809F80A003418
:100D6E00F41FC22EF01BBF2E7008F800F001B02E3B
:100D7E00F001F00A0034F009FB0A982EF80A740804
:100D8E007802031DB02EF801F00AF01FB02EFF34CA
:020D9E0008004B
:100DA00083120313FB01FA01F9018030F800F10C02
:100DB000F00C031CE42E7408F90775080318750F6E
:100DC000FA070318FB0A0310F01FEC2E7408FA0749
:100DD00075080318750FFB07FB0CFA0CF90CF80CDF
:100DE000031CD72E7B08F3007A08F2007908F10083
:060DF0007808F000080085
:100DF600831603132E08F1000130F0007108031961
:100E0600082FF00D7010FF3E022F7008B100700918
:100E1600B0002D088400AF018312EF016F08073C74
:100E2600031C382F83163008800584173008800588
:100E36009320310880049320841331080005F000C4
:100E46000319342F83126F08F1000130F000710886
:100E56000319312FF00D7010FF3E2B2F70088316EB
:100E6600AF0431203120EF0A112F83162F08F0002E
:020E7600080072
:100E780083120313FB01FC01FA01730803197B2F8A
:100E8800F2178E30F302F31B4C2F03194C2F7E2FD1
:100E9800F309F30A08307302031C612FF300F10D04
:100EA8007208F100F20108307302031C612FF10D82
:100EB800F1017308031D0310692F73080319692FC3
:100EC8000310F20CF10CF30B642F7B1B711C732FB6
:100ED800031C732FF10A0319F20AF21B8A2FFA1F57
:100EE8008D2FF209F109F10A0319F20A8D2FF20187
:100EF800F1018D2F7B14FB1F902FF201FA1F902F09
:100F0800FF30F200F100FA0DF20C902F0130FC00D6
:100F1800922F0030FC00922FFF30FC00FC080319D0
:0E0F2800962FCF247108F0007208F100080027
:0C0F3600831203138030F606E324080049
:100F4200831603132E08F1000130F0007108031913
:100F5200AE2FF00D7010FF3EA82F7008AF00F00901
:100F62002D08840070088005841770088005972575
:100F720083162F0880048413A02583162F080005EA
:100F82008312EF006F08003A013003190030EF00BE
:080F920097256F08F00008002C
:100F9A00B0258A110A128000840AEC0A0319ED0AA4
:080FAA00F003031DCD2F080028
:100FB200831203137008F8007108F000F101F201C6
:100FC200F301FB01FC019630F300FA017008F10015
:0C0FD2007808F000F801F20197240800F4
:100FDE008316031398169030831298008316871782
:100FEE00071383128C1EFE2F1A08F000F82F08002C
:1010000083160313AE1F0F288312310884002D307E
:1010100080008316AD09AE09AD0A0319AE0A2D088A
:10102000F0002E08F100F10CF00CF113F10CF00CB3
:10103000F113F10CF00CF113F10CF00CF11370083A
:101040008312EF006430F4008A1186258A15700837
:10105000031938286430F4006F08F0008A118625DF
:101060008A153030F00731088400700880003C2871
:101070003108840030308000310A8316B1000A3014
:10108000F40083126F08F0008A1186258A150A3051
:10109000F4008A1186258A157808F0003030F007B0
:1010A00083163108840070088000023083123107F3
:1010B0008316B1000A30F40083126F08F0008A1121
:1010C00086258A157808F0003030F007831631083D
:1010D0008400700880002D08AF002E08B0000F308B
:1010E0002D05F0002E08F1000030F1057008AF006A
:1010F0007108B0007130F4000230F5008A11D0267A
:101100008A1570088316AF007108B000043083128E
:1011100031078316B100E830F4000330F5008A117E
:10112000B7258A153030F00783163108840070081F
:1011300080000530831231078316B1006430F4005B
:101140000030F5002F08F0003008F1008A11B725B3
:101150008A150A30F4000030F5008A11B7258A1587
:101160007808F0007908F1003030F0078316310874
:101170008400700880000630831231078316B100A6
:101180000A30F4000030F5002F08F0003008F100BC
:101190008A11B7258A150A30F4000030F5008A114B
:1011A000B7258A157808F0007908F1003030F0078B
:1011B00083163108840070088000073083123107DD
:1011C0008316B1000A30F4000030F5002F08F0005B
:1011D0003008F1008A11B7258A157808F0007908DF
:1011E000F1003030F0078316310884007008800069
:1011F00083123108EB0002308316B9000130BA00C7
:10120000831231088316BB008A1121268A156B08C8
:101210008316B9008A11DC248A158312031370081F
:10122000E1007108E2007208E3007308E4008A112B
:06123000DE258A1508000E
:1012360083160313B701B8012D08B3002E08B400B6
:101246002F08B5003008B6003608FF3A031D3529C9
:101256003508FF3A031D35293408FF3A031D3529A1
:101266003308FF3A031D41293108B9003E30BA0060
:101276008A1164268A150330F000382B0130831258
:10128600EF008316B51F542980303506F00070082C
:10129600B5008312EF0A8316310884002D308000D2
:1012A600B10A0030F0003606031D632970083506C2
:1012B600031D632970083406031D63293308003AA9
:1012C600031D6E293108B9003C30BA008A11642624
:1012D6008A15F001382B3608FF3A031D7C2935089C
:1012E600003A031D7C293408003A031D7C29330883
:1012F600003A031D89293108B9003830BA008A112D
:1013060064268A1583126F08F000382B0030F4002B
:101316000030F5000030F6007F30F7008316330802
:10132600F0003408F1003508F2003608F3008A119F
:1013360095208A15013003180030F0007008031953
:10134600C32983163308F0003408F1003508F2008B
:101356003608F3000030F4000030F5002030F600C7
:101366008230F7008A11E5208A1570088316B300CB
:101376007108B4007208B5007308B600B80389296D
:1013860083160030F4000030F5002030F60082307D
:10139600F7003308F0003408F1003508F20036088B
:1013A600F3008A1195208A150130031C0030F000E5
:1013B60070080319FD2983163308F0003408F1007C
:1013C6003508F2003608F300CD30F400CC30F500D5
:1013D6004C30F6007B30F7008A11E5208A1570083C
:1013E6008316B3007108B4007208B5007308B6001E
:1013F600B80AC3298316FF303305F800FF303405D9
:10140600F9007F303505FA0000303605FB00780814
:10141600F4007908F5007A08F6007B08F700F40D69
:10142600F50DF60DF70D741000303305F0000030A1
:101436003405F10000303505F200FF303605F300C3
:101446007008B3007108B4007208B5007308B600DE
:1014560074083304F00075083404F1007608350486
:10146600F20077083604F3007008B3007108B40080
:101476007208B5007308B6007F303602F0007008B7
:10148600B2000130B6007008F4003308F0003408EA
:10149600F1003508F2003608F300740803195A2AD9
:1014A600F00DF10DF20DF30D7010FF3E512A70088C
:1014B600B3007108B4007208B5007308B6003608A8
:1014C600303EF0003108840070088000B10A803098
:1014D6003806F0008030013A7002031C7B2A803007
:1014E600063AF000803038067002031C7B2A822AF6
:1014F600310884002E308000B10A0130B700063072
:10150600B2003208003A0319E02AB6013308F000A7
:101516003408F1003508F2003608F300F00DF10D3D
:10152600F20DF30D7010F00DF10DF20DF30D7010BC
:101536003308F00734080318340FF1073508031889
:10154600350FF20736080318360FF3077008B30095
:101556007108B4007208B5007308B6003308F000CD
:101566003408F1003508F2003608F300F00DF10DED
:10157600F20DF30D70107008B3007108B400720814
:10158600B5007308B6003608303EF0003108840016
:1015960070088000B10A3708003A031DDE2AB80336
:1015A6003808003A031DDE2A310884002E308000F8
:1015B600B10A0130B700B203842AFF303107840034
:1015C6000008303A031DE92AB103E02AFF3031074B
:1015D600840000082E3A031DF12AB1033808003AA8
:1015E6000319342B3108840065308000B10A80303D
:1015F6003806F0008030003A700203180A2B3108D2
:1016060084002D308000B10A3808003CB800380844
:10161600B2008030093AF0008030380670020318B4
:10162600232B0A30F4003208F0008A117F268A152F
:101636003030F00783163108840070088000B10A44
:101646000A30F4003208F0008A117F268A157808DD
:10165600F0003030F00783163108840070088000EF
:0C166600B10A310884008001F001080086
:10167200831203137408003A031D542B7508003AB1
:10168200031D542B7608003A031D542B7708003AA9
:10169200031D542BFF30F000FF30F1007F30F200C9
:1016A200FF30F300F72B8312031377080319E32BA0
:1016B20073080319E82B720876068039FA00F217CC
:1016C200F617A0017208F8007108FC007008FD000E
:1016D2007408FD027508031C750FFC027608031CD2
:1016E200760FF802F801FC01FD01031C7F2B0310A9
:1016F200F20CF10CF00CF80C0130A0007708F302A8
:10170200031C892B7E302007F3070318ED2B8E2B49
:101712007E302007F307031CF22B1830FA07FD0D69
:10172200FC0DF80DF00DF10DF20DA00D7408F00294
:101732007508031C750FF1027608031C760FF2027E
:10174200760DA004201CA72B7D14B22B7408F00781
:1017520075080318750FF10776080318760AF20761
:101762007D10FA031F307A05031D902B7B1B7D1C15
:10177200D92B0310F00DF10DF20DA00D7408F0023B
:101782007508031C750FF1027608031C760FF2022E
:10179200760D20040139FD070318FC0A0319F80A23
:1017A200031DD92BF80CFC0CFD0CF30A0319ED2BCD
:1017B200FA1FF8137808F2007C08F1007D08F000A7
:1017C2000030F62B01308A1183258A15F62B023060
:1017D2008A111F208A15F62B04308A1107208A15D8
:0E17E200F62B08308A1113208A15000008002B
:1017F000831603132E08F1000130F000710803195D
:10180000052CF00D7010FF3EFF2B7008B100F009A1
:101810007008B0002D0884007008800584178312BA
:10182000EF016F08073C031C312C6F08F000831692
:101830002F08F10070080319212CF10CF113FF3E61
:101840001B2C831630088005711C282C310880045D
:101850008A11A0258A158316310880048312EF0AA5
:10186000112C84138A1131208A158A1131208A158E
:0218700008006E
:1018720083160313AE0183126F08840000088316D7
:10188200AD002D08003A0319552C2D08B9008A1114
:10189200D4258A158316AE0A2E0883126F07840098
:0A18A20000088316AD00422C080078
:1018AC008316031386120612061086100611861173
:1018BC0083128612061286110611861006108A11E2
:1018CC0026208A158A1126208A158A1126208A1527
:1018DC008614061486168A1193208A1586128A118C
:1018EC0026208A1586168A1193208A1586128A114B
:1018FC0026208A1586168A1193208A1586128A113B
:10190C0026208A15061086168A1193208A158612AF
:10191C008A1126208A1586168A1193208A1586121A
:10192C008610861586168A1193208A1586128A11BE
:10193C0026208A158611061486168A1193208A157C
:10194C008612061086168A1193208A1586128A1121
:10195C0026208A1586168A1193208A15861206145B
:10196C0086168A1193208A1586128A1126208A15CA
:10197C00061086168A1193208A158612861506156E
:10198C008614061486168A1193208A1586128A11DB
:08199C0026208A156E140800D4
:1019A400831203139F01C0309F043209F0007008B2
:1019B40083169F051F179F1783126F08F000F00D01
:1019C4007010F00D7010F00D701070089F041F144B
:1019D4008A11A9258A151F151F1DF22C0000EE2C53
:1019E4001F101E08F100F00183161E08F0040030D9
:0419F400F1040800F2
:1019F8000E2D803083160313AD00212DC030AD00AD
:101A0800212D9430AD00212DD430AD00212D803012
:101A1800AD00212D831603132D08013A0319FD2C5F
:101A28002D08023A0319022D2D08033A0319052D32
:101A38002D08043A0319082D0B2D2E03F0002D084C
:101A4800F0077008AD0083126E1470088316C60084
:101A58008A11F1218A156E1083162F08C6008A1183
:081A6800F1218A156E1408003B
:101A700012270430831603139F001930990018159C
:101A80008A11EF278A158230FC00DD30FD00FD0B46
:101A9000472DFC0B472D00000000FF30831685000A
:101AA0008601870183128601870183160713871732
:101AB000562401308316C6008A11F1218A150C3094
:101AC0008316C6008A11F1218A1501308316B900E8
:101AD0000130BA002130BB008A1121268A1502305C
:101AE0008316AD000930AE00DF30AF00FC240230B9
:101AF0008316AD000A30AE004330AF00FC24023044
:101B0000EF00D22470088312E9007108EA008A11FC
:101B1000D9278A150030F4000030F5002030F60097
:101B20008130F7008A11E5208A150030F400C030BA
:101B3000F5007F30F6008830F70039237008E500A3
:101B40007108E6007208E7007308E8004608F40030
:101B50004708F5004808F6004908F7008A11E52013
:101B60008A154208F4004308F5004408F6004508C9
:101B7000F7008A11E3248A1570088316A000710803
:101B8000A1007208A2007308A3009A30F4009930F3
:101B9000F5001930F6007F30F7008A119B278A156F
:101BA00070088316A0007108A1007208A2007308D3
:101BB000A3007008AD007108AE007208AF00730892
:101BC000B000A430B1001B21023083160313B9000A
:101BD0000C30BA00A430BB008A1121268A150530CA
:101BE0008316AD000430AE008A11A1278A15053096
:101BF0008316AD000430AE00CC30AF00F8230530C2
:101C00008316AD000430AE004430AF00F823273017
:101C1000FD00FD0B092E0000000005308316AD000D
:101C20000430AE008A11A1278A1505308316AD0055
:101C30000430AE00CC30AF00F82305308316AD0081
:101C40000430AE00BE30AF00F82305308316AD007F
:101C50000430AE008A11FB268A157008AB00AC0177
:101C60000530AD000430AE008A11FB268A157008DD
:101C7000F300F2012B087207F00073080318013E0D
:101C80002C07F1007008AB007108AC008A11D9274D
:101C90008A15A030F4001A30F5005F30F60082306B
:101CA000F7008A119B278A158A113C278A1570082C
:101CB0008316AB007108AC007008AD007108AE006F
:101CC00000206108F4006208F5006308F60064086B
:101CD000F7000030F0000030F1007030F200823088
:101CE000F3008A1195208A150130031C0030F000A2
:101CF000700803197D2E87167E2E87120330FB0095
:101D00008A30FC005530FD00FD0B842EFC0B842E28
:101D1000FB0B842E000000004A30EF0039248312B0
:101D20006B08EF00392483126B088316B9008A11FF
:101D3000D4258A150A308316B9008A11D4258A154C
:101D40000D308316B9008A11D4258A153330EF007F
:101D50003924A4308312EF003924A430B9008A1149
:101D6000D4258A150A308316B9008A11D4258A151C
:101D70000D308316B9008A11D4258A150A308316CE
:101D8000B9008A11D4258A150D308316B9008A113D
:081D9000D4258A157F2DCB2E0E
:101E240021308400403083120313F000D130EC00E1
:0C1E34000E30ED008A11CD278A15080041
:101DA2002034543465346D3470343A342034203461
:101DB2002034203420342034703448343A3400340F
:021DC200583493
:021DC4000F34DA
:0A1DC600703448343A3420340034FD
:081DD00049344E34463400345E
:041DD800303400346F
:081DDC004E3461344E34003432
:081DE400AE3447342D34833482
:081DEC0073346834B134813412
:101DF400543465346D3470346534723461347434FD
:0C1E04007534723465343A3420340034F4
:101E10003034303430342E343034303430343034A4
:021E200000348C
:02400E00412F40
:00000001FF
